:100000000C9443000C9460000C9460000C9460000D
:100010000C9460000C9460000C9460000C946000E0
:100020000C9460000C9460000C9460000C94F60238
:100030000C9460000C9460000C9460000C946000C0
:100040000C9460000C9460000C9454010C946000BB
:100050000C9460000C9460000C9460000C946000A0
:100060000C9460000C94600005A84CCDB2D44EB93D
:100070003836A9020C50B9918688083CA6AAAA2A4B
:10008000BE000000803F11241FBECFEFD8E0DEBFCE
:10009000CDBF12E0A0E0B1E0E6E0FCE002C00590D8
:1000A0000D92A63BB107D9F725E0A6EBB2E001C05F
:1000B0001D92AD39B207E1F70E9481020C9401064E
:1000C0000C94000010928000E1E8F0E01082808142
:1000D000896080831092850010928400EFE6F0E042
:1000E00080818260808387EE93E090938900809383
:1000F000880008951092C5008FE18093C40088E9BC
:100100008093C100E2ECF0E08081866080830895F6
:100110009091C00095FFFCCF8093C600089584B1F4
:100120008C6284B92A9A80E58CBD08952A989063E0
:100130009EBD0DB407FEFDCF8EBD0DB407FEFDCFF5
:100140002A9A08950F931F93CF93DF93C0E0D0E0D6
:10015000BE010D2E000C880B990B0E94E2032CE7C8
:1001600039ED40E25DE30E94C60424EE3BEC46E933
:1001700050E40E9445030E94570520E030E040E82B
:100180005FE30E94450320E030E04FEF52E40E941D
:10019000C6040E94330500910701109108010C0F5D
:1001A0001D1F0E94B103F80160832196C03AD1055A
:1001B00079F6DF91CF911F910F910895CF92DF9241
:1001C000EF92FF920F931F93CF93DF93E09105017E
:1001D000F09106011082C1E0D0E0C12CD12C760153
:1001E000009105011091060120E030E04CE450E45C
:1001F000C701B601C135D1051CF40E94450302C0F8
:100200000E9444036B017C010E941D040C0F1D1F02
:100210000E94B103F80160832196C03AD10501F72D
:10022000DF91CF911F910F91FF90EF90DF90CF90D2
:10023000089580E090E04FEF209103013091040198
:10024000F901E80FF91F8035910514F4408301C0CE
:1002500010820196803A910579F708950F931F93C4
:10026000CF93DF93C0E0D0E0009101011091020133
:100270000C0F1D1FBE010D2E000C880B990B0E9448
:10028000E20320E030E04CEC5FE30E94C6040E94F1
:10029000B103F80160832196C03AD10529F7DF91B7
:1002A000CF911F910F9108951F920F920FB60F9249
:1002B00011242F933F934F935F936F937F938F936B
:1002C0009F93AF93BF93EF93FF932091C600922F1C
:1002D000991F9927991F822F82958F70885082309D
:1002E00068F48091B80290E0FC01EE0FFF1F8E0FC2
:1002F0009F1FFC01E654FD4F20833BC0911140C07D
:10030000809100018230E0F58091B80290E0309158
:100310000001FC01EE0FFF1FE80FF91FE654FD4F2F
:10032000E30FF11D218380910001813029F5809137
:10033000B80290E0FC01EE0FFF1F8E0F9F1FFC0123
:10034000E654FD4F30818091B80290E001966AE05A
:1003500070E00E94ED058093B8028091B80290E0B1
:10036000FC01EE0FFF1F8E0F9F1FFC01E654FD4F97
:1003700030831092000107C0809100018F5F01C09F
:100380008FEF80930001822F0E948800FF91EF91F0
:10039000BF91AF919F918F917F916F915F914F919D
:1003A0003F912F910F900FBE0F901F9018950F93B4
:1003B0001F93CF93DC012C9122952F70C09199054A
:1003C000283021F012962C91211112C0EFEFEC0F82
:1003D000E0939905E11102C02C982DC0F0E0E85A95
:1003E000FA4F87A980935A0581E080939A0523C02C
:1003F0008C01FC01818180935A0562816695669526
:10040000669570E080E090E00E94E2030E94330570
:100410000E94B10360935B05E1E0EC0FE093990566
:10042000D80111968C91F0E0E85AFA4F87AB81E041
:1004300080939A052C9ACF911F910F9108954F9216
:100440005F926F927F928F929F92AF92BF92CF9264
:10045000DF92EF92FF920F931F93CF93DF93E09180
:100460005A05E150EB3658F484E0E89FF00111247E
:10047000E75FFE4F80809180A280B38008C08CE847
:10048000882E8CE6982E87E2A82E8EE3B82ECCE537
:10049000D5E00EE815E0C12CD12C7601A501940120
:1004A000C701B6010E9445036B017C010E94330520
:1004B0002B013C01A5019401C701B6010E94440330
:1004C0000E9433059B01AC01C301B2010E944403A9
:1004D0000E94B10369930C171D0701F710929A054A
:1004E000DF91CF911F910F91FF90EF90DF90CF9010
:1004F000BF90AF909F908F907F906F905F904F9044
:100500000895809107019091080190939C05809334
:100510009B05F894249A2C9821980E9462000E94CE
:100520007A000E948F000E94A2000E94DE000E94BA
:1005300019010E942E01789411E0CAE0D0E0809168
:10054000B9029091B8028917A1F090E09C01220FA6
:10055000331F820F931F86549D4F0E94D7018091B5
:10056000B90290E00196BE010E94ED058093B902A8
:10057000E6CF80919A0581110E941F02199B2CC021
:100580008091B702811128C08091B60290E0019657
:10059000837099278093B602823071F0833089F09E
:1005A000813029F080910701909108010EC080915F
:1005B00005019091060109C0809103019091040109
:1005C00004C0809101019091020190939C05809359
:1005D0009B051093B702B3CF1999B1CF8091B702A1
:1005E000882309F4ACCF1092B702A9CF1F920F92C3
:1005F0000FB60F9211242F933F934F935F936F93F6
:100600007F938F939F93AF93BF93CF93DF93EF939A
:10061000FF93C8E5D5E088819981E0919B05F09131
:100620009C05E80FF91F90818B81989FC0011124D0
:100630000E94960088819981EEA9F0E0E85AFA4F6D
:100640002481820F911D60EA70E00E94D905998390
:1006500088838EA990E0019662E370E00E94ED0528
:100660008EABFF91EF91DF91CF91BF91AF919F91B1
:100670008F917F916F915F914F913F912F910F904B
:100680000FBE0F901F9018955058BB27AA270E94A5
:100690005C030C9474040E94660438F00E946D049C
:1006A00020F039F49F3F19F426F40C9463040EF4FF
:1006B000E095E7FB0C943404E92F0E94850458F37D
:1006C000BA17620773078407950720F079F4A6F537
:1006D0000C94BF040EF4E0950B2EBA2FA02D0B0145
:1006E000B90190010C01CA01A0011124FF27591B77
:1006F00099F0593F50F4503E68F11A16F040A22F7D
:10070000232F342F4427585FF3CF469537952795ED
:10071000A795F0405395C9F77EF41F16BA0B620BEC
:10072000730B840BBAF09150A1F0FF0FBB1F661F33
:10073000771F881FC2F70EC0BA0F621F731F841F76
:1007400048F4879577956795B795F7959E3F08F09C
:10075000B0CF9395880F08F09927EE0F979587955E
:1007600008950E948D0488F09F5798F0B92F99271B
:10077000B751B0F0E1F0660F771F881F991F1AF08C
:10078000BA95C9F714C0B13091F00E94BF04B1E02E
:1007900008950C94BF04672F782F8827B85F39F02D
:1007A000B93FCCF3869577956795B395D9F73EF425
:1007B00090958095709561957F4F8F4F9F4F0895CD
:1007C000E89409C097FB3EF49095809570956195EB
:1007D0007F4F8F4F9F4F9923A9F0F92F96E9BB27A1
:1007E0009395F695879577956795B795F111F8CF1D
:1007F000FAF4BB0F11F460FF1BC06F5F7F4F8F4F88
:100800009F4F16C0882311F096E911C0772321F07D
:100810009EE8872F762F05C0662371F096E8862F15
:1008200070E060E02AF09A95660F771F881FDAF76C
:10083000880F9695879597F908950E94A70490F0E0
:100840009F3748F4911116F00C94C00460E070E0FA
:1008500080E89FEB089526F41B16611D711D811D14
:100860000C943A040C94550497F99F6780E870E063
:1008700060E00895882371F4772321F09850872B46
:10088000762F07C0662311F499270DC09051862B4F
:1008900070E060E02AF09A95660F771F881FDAF7FC
:1008A000880F9695879597F908959F3F31F091505D
:1008B00020F4879577956795B795880F911D969544
:1008C000879597F908959FEF80EC089500240A9486
:1008D0001616170618060906089500240A9412161B
:1008E0001306140605060895092E0394000C11F44E
:1008F000882352F0BB0F40F4BF2B11F460FF04C0FB
:100900006F5F7F4F8F4F9F4F089557FD9058440F53
:10091000551F59F05F3F71F04795880F97FB991F5E
:1009200061F09F3F79F0879508951216130614061B
:10093000551FF2CF4695F1DF08C0161617061806A8
:10094000991FF1CF869571056105089408950E945D
:100950008D04A0F0BEE7B91788F4BB279F3860F478
:100960001616B11D672F782F8827985FF7CF8695C9
:1009700077956795B11D93959639C8F30895E894D6
:10098000BB2766277727CB0197F908950E94D904E2
:100990000C9474040E94660438F00E946D0420F0E8
:1009A000952311F00C9434040C94630411240C94DA
:1009B000C0040E94850470F3959FC1F3950F50E029
:1009C000551F629FF001729FBB27F00DB11D639F01
:1009D000AA27F00DB11DAA1F649F6627B00DA11DA7
:1009E000661F829F2227B00DA11D621F739FB00D4D
:1009F000A11D621F839FA00D611D221F749F3327BD
:100A0000A00D611D231F849F600D211D822F762F55
:100A10006A2F11249F5750409AF0F1F088234AF032
:100A2000EE0FFF1FBB1F661F771F881F915050409E
:100A3000A9F79E3F510580F00C9434040C94C00437
:100A40005F3FE4F3983ED4F3869577956795B79525
:100A5000F795E7959F5FC1F7FE2B880F911D96953F
:100A6000879597F908950E948D04E8F09E37E8F085
:100A70009639B8F49E3848F4672F782F8827985F06
:100A8000F9CF86957795679593959539D0F3B62FDD
:100A9000B1706B0F711D811D20F487957795679557
:100AA00093950C943A040C9455040C94C0049F93B1
:100AB0000E9461050F9007FCEE5F0C948A050C9470
:100AC00063040E948D04D8F3E894E0E0BB279F57AD
:100AD000F0F02AED3FE049EC06C0EE0FBB0F661FB9
:100AE000771F881F28F0B23A62077307840728F03F
:100AF000B25A620B730B840BE3959A9572F78038A8
:100B000030F49A95BB0F661F771F881FD2F7904865
:100B10000C945704EF93E0FF07C0A2EA2AED3FE0F0
:100B200049EC5FEB0E945C030E9474040F900394F5
:100B300001FC9058E8E6F0E00C949E059F938F939B
:100B40007F936F93FF93EF939B01AC010E94C604C8
:100B5000EF91FF910E94B2052F913F914F915F91CC
:100B60000C94C604DF93CF931F930F93FF92EF92E1
:100B7000DF927B018C01689406C0DA2EEF010E949F
:100B8000D904FE01E894A59125913591459155919F
:100B9000A6F3EF010E945C03FE019701A801DA941D
:100BA00069F7DF90EF90FF900F911F91CF91DF9148
:100BB0000895AA1BBB1B51E107C0AA1FBB1FA617A4
:100BC000B70710F0A61BB70B881F991F5A95A9F7F6
:100BD00080959095BC01CD01089597FB072E16F4E2
:100BE000009407D077FD09D00E94D90507FC05D0F5
:100BF0003EF4909581959F4F0895709561957F4F34
:060C00000895F894FFCFF7
:100C0600FFB80418047803D802575B313E6CE73B03
:100C16003E032B473EAAF1523E098A5F3EB2BF6CA5
:100C26003E47E17A3E4AEA843ECDCC8C3E6132951F
:100C36003EEE0D9E3E8C6CA73E7368B13E87F4BBBC
:100C46003EE71DC73EAAF1D23EEE7CDF3ECDCCECA0
:100C56003E47E1FA3EBCE3043FCDCC0C3FD42B1516
:100C66003FEE0D1E3F1A73273F7368313F87F43BF3
:100C76003FE71D473F38F8523F7C835F3FCDCC6C42
:100C86003F47E17A3F04E7843FCDCC8C3FD42B9598
:100C96003FA60A9E3FD26FA73F2B65B13F42F1BBED
:100CA6003FE71DC73FF1F4D23F3580DF3FCDCCECA7
:100CB6003F47E1FA3F60E50440CDCC0C40D42B150C
:100CC60040A60A1E40767127402B65314042F13B13
:100CD600408B1F474095F65240D9815F4029CB6C27
:100CE6004047E17A4060E58440CDCC8C40D42B95DA
:100CF60040A60A9E40A470A740FD65B14014F2BB11
:100D060040B91EC740C3F5D240D981DF40FBCBECCA
:100D16004075E0FA40C9E50441CDCC0C413D2C15A7
:100D2600410F0B1E41A47027419465314114F23BDB
:100D360041221F47412CF6524170815F41FBCB6C2B
:100D46004175E07A41C9E58441CDCC8C413D2C9575
:100D560041DB0A9E41A470A7419465B14114F2BBE0
:100D660041221FC7412CF6D241A481DF41FBCBECC7
:100D76004175E0FA41C9E50442CDCC0C42222C155E
:100D860042F50A1E42BE70274294653142F8F13B95
:100D960042061F47422CF6524289815F42E1CB6CE4
:100DA6004291E07A42C9E58442CDCC8C42222C9510
:060DB60042E70A9E420024
:00000001FF
