:100000000C9434000C9451000C9451000C94510049
:100010000C9451000C9451000C9451000C9451001C
:100020000C9451000C9451000C9451000C944E010E
:100030000C9451000C9451000C9451000C945100FC
:100040000C9451000C9451000C9453000C945100EA
:100050000C9451000C9451000C9451000C945100DC
:100060000C9451000C94510011241FBECFEFD8E026
:10007000DEBFCDBF11E0A0E0B1E0EEE7F3E002C0EB
:1000800005900D92A230B107D9F721E0A2E0B1E0CE
:1000900001C01D92A432B207E1F70E9400010C9446
:1000A000BD010C9400001F920F920FB60F92112405
:1000B0002F933F935F936F937F938F939F93AF9310
:1000C000BF93EF93FF932091C600822F82958F708C
:1000D0008850823008F442C080910001811115C01F
:1000E0008091040190E030910001FC01EE0FFF1FB0
:1000F000E80FF91FEA5FFE4FE30FF11D21838091A6
:1001000000018F5F8093000137C0809100018F3F15
:1001100099F18091040190E030910001FC01EE0F13
:10012000FF1FE80FF91FEA5FFE4FE30FF11D218368
:100130008091040190E0FC01EE0FFF1F8E0F9F1FC6
:10014000FC01EA5FFE4F20818091040190E001965E
:100150006AE070E00E94950180930401809104019F
:1001600090E0FC01EE0FFF1F8E0F9F1FFC01EA5F66
:10017000FE4F208310920001FF91EF91BF91AF914C
:100180009F918F917F916F915F913F912F910F90F0
:100190000FBE0F901F90189510928000E1E8F0E0DC
:1001A0001082808189608083109285001092840083
:1001B000EFE6F0E080818260808387EE93E09093A9
:1001C00089008093880008951092C5008FE1809384
:1001D000C40088E98093C100E2ECF0E08081866091
:1001E000808308959091C00095FFFCCF8093C60056
:1001F000089584B18C6284B92A9A80E58CBD0895F3
:10020000F8940E94CC000E94E4000E94F9007894C7
:10021000CAE0D0E080910501909104018917E1F3D3
:1002200090E0FC01EE0FFF1F8E0F9F1FFC01EA5FA5
:10023000FE4F80810E94F2008091050190E0FC0158
:10024000EE0FFF1F8E0F9F1FFC01EA5FFE4F8181A3
:100250000E94F2008091050190E0FC01EE0FFF1F6B
:100260008E0F9F1FFC01EA5FFE4F82810E94F20009
:100270008091050190E00196BE010E949501809356
:100280000501C8CF2A9890639EBD0DB407FEFDCF2F
:100290008EBD0DB407FEFDCF2A9A08951F920F92CE
:1002A0000FB60F9211242F933F934F935F936F9349
:1002B0007F938F939F93AF93BF93EF93FF9380911F
:1002C000020190910301499718F48FEF9FE008C055
:1002D0008091020190910301C19770F480E090E059
:1002E0000E94420180910201909103010196909336
:1002F00003018093020108C080E090E00E94420167
:100300001092030110920201FF91EF91BF91AF9102
:100310009F918F917F916F915F914F913F912F911D
:100320000F900FBE0F901F90189597FB072E16F495
:10033000009407D077FD09D00E94A90107FC05D0E1
:100340003EF4909581959F4F0895709561957F4FEC
:100350000895AA1BBB1B51E107C0AA1FBB1FA6170C
:10036000B70710F0A61BB70B881F991F5A95A9F75E
:0E03700080959095BC01CD010895F894FFCFC3
:02037E00FF007E
:00000001FF
